:10000000FC7F00209D0700008D0700009107000085
:1000100000000000000000000000000000000000E0
:100020000000000000000000000000009507000034
:100030000000000000000000990700001509000002
:1000400010B5064C2378002B07D1054B002B02D0AE
:10005000044800E000BF0123237010BD58000020B9
:1000600000000000FC1C0000044B10B5002B03D066
:100070000349044800E000BF10BDC0460000000076
:100080005C000020FC1C0000154B1B78002B06D1E7
:10009000144B1B78144A11785B18DBB21370104AAA
:1000A00013780133DBB213700F4B1B78DBB2F02BEC
:1000B00004D80D4B1B78DBB2092B0BD8094A1378F7
:1000C0005BB25B425BB213701378074A11785B181E
:1000D000DBB21370024B1B78034B1B787047C04692
:1000E000740000200000002001000020C369002BE4
:1000F000FCD1094B1A430260C369002BFCD1C02319
:100100009B0243608181C369002BFCD103680222FA
:10011000134303607047C04604000040037EDB07C2
:10012000FCD589B201857047037E5B07FCD5438B04
:10013000DB0705D4438B9B0702D4438B5B0702D5B7
:10014000024B01221A70008DC0B27047750000206A
:10015000F8B5040003689A8B120707D40822FF320F
:100160009B5CDB062FD500F019FC2CE008229A835B
:1001700078329A7280214900112058544026062175
:10018000FF315E5482256D005A55104A5168104F58
:100190003940C0208005014351605169394008430E
:1001A00050610C4911600C49116151680B480840BD
:1001B00080218902014351605168890B8903516094
:1001C0005E55002323712079F8BDC04690010020C0
:1001D000FFFFFF8F9000002010010020FF3F00F084
:1001E0000160002303714371034B83600B7802228B
:1001F00013430B707047C0465101000010B52E4AE2
:10020000936901210B4393612C4B57315A5C0124B4
:1002100022435A543C22985C493988439854985C4C
:100220000621084398545920195C21431954995CBC
:100230004A3801409954995C602001439954204AFE
:1002400090234021D15010005031402243581A428F
:10025000FCD01C4B1B689A03D20E1F2A25D05902D2
:10026000C90E1F2923D09B015B0F072B21D09201C0
:100270000A431B0313438222D205138511787F237F
:100280000B401370137804210B4313700E48506217
:1002900013890C218B43138113890B398B431381F1
:1002A0008022002101F0A3FB10BD1A3AD7E70239E2
:1002B000D9E7043BDBE7C0460004004000280040CB
:1002C000001800402060800090010020F0B5C64674
:1002D00000B5050016001C0098465A01214B9B18DA
:1002E00010335B685B005B0F033301229A40B2421C
:1002F0002BD862011B4B9B185869802212060243BF
:100300005A616201174B9B181A0019615B69B104AD
:10031000890C9B0B9B030B435361536912490B40A0
:100320005361083464012C190223E3716279823B22
:10033000134363714046083040012818C3799B0776
:10034000FCD5300004BC9046F0BD27007B1E9F41C9
:10035000BF01064BFF183200380001F03FFB3900A7
:10036000CFE7C04690010020FF3F00F010010020C1
:1003700070B505000E0014001B4B1B78002B14D128
:100380001A4B1B4A1A645A6C920B92035A645A6CA9
:1003900018490A405A64A2225200835C40210B4350
:1003A0008354114B443AFF3A1A704823FF33EB5CF5
:1003B0000020DB0716D50D4B5B6C9B049B0CA34206
:1003C00003D20A4B5C6CA404A40C22000849300040
:1003D00001F004FB4823FF330122EA54024B0022C0
:1003E0001A70200070BDC0467600002090010020E9
:1003F000D0000020FF3F00F0002906D10622FF3286
:10040000835C10210B43835470470622FF32835CC8
:1004100020210B438354F7E70A4A53699B0B9B0344
:1004200053610823FF330222C2540622FF32815C4B
:10043000883BFF3B0B4383540822FF32835C9B07BE
:10044000FCD570479001002080235B421943C9B25C
:100450008172704770B5A0235B000322C254134B16
:100460005A6C134C2240C02189050A435A64402526
:100470004622FF3285540F4A1A64902252003026D9
:1004800086545A6B224011435963802192225200B4
:100490008154094A1A63B022520085545A6F22408F
:1004A0005A67B2235B00C15470BDC0469001002062
:1004B000FFFFFF8FD0000020500100200422824067
:1004C0000348044943680B401A42FBD17047C046B9
:1004D00000180040FC070000F0B5DE4657464E46C7
:1004E0004546E0B583B09B4B03229A609A4B5A680D
:1004F00080210A435A605A687C390A435A60802333
:10050000DB0501229A7101329A701A009379002B4F
:10051000FCD0924A5369924919408023DB000B4377
:1005200080218B437C390B4304310B4338310B431F
:10053000536153693E390B43536111000122CB686B
:100540001A42FCD0874B1868800E3F2800D1FFE08C
:100550008549802252008B681342FCD0824AD769B9
:100560008002824B1F400743BF0ABF023F231F4345
:10057000D7611100802252008B681342FCD07A4A66
:10058000146AA401A409E0235B051C43784B1C40BA
:10059000FC239B031C43240C2404B723DB001C43D3
:1005A00014621100802252008B681342FCD06E4A04
:1005B000138B04210B4310218B4308398B436D4966
:1005C0000B406D490B408231FF318B4340398B43E7
:1005D00001939BB21383694A53690B435361684B80
:1005E00001221A7019000B781342FCD1644D6B6A1A
:1005F0001B041B0C8026760233430F229346934341
:100600000A3A13435F4A924613405F4A91461340A9
:100610006B620120FFF752FF6B6A80225200904606
:1006200013436B62AB6A1B041B0CA022D2021A4359
:1006300080239B0013435A469343093A134352467F
:1006400013404A461340AB620220FFF737FFAB6A04
:1006500042461343AB62EB6A1B041B0C1E435B4612
:100660009E43083B1E4353461E404B461E40EE62CF
:100670000320FFF723FFEB6A42461343EB6280231C
:10068000E95840208143E950FF3AEA50EA580243D2
:10069000EA5028008021402243581A42FCD03249B7
:1006A000802252008B681342FCD02F4B1A8B802182
:1006B0008A431A830220019A0243100002221A83FD
:1006C00000221A6219000132FF328B681342FCD0FB
:1006D000254B1C621900802252008B681342FCD00B
:1006E000214BDF611900802252008B681342FCD03D
:1006F0001D4B00221A8319000132FF32CB681342CE
:10070000FCD080B2184B18831D4C236A1B041A0CB2
:1007100080235B0213430F229343083A1343194A81
:100720001340194A134023620020FFF7C7FE226AD4
:1007300080235B0013432362104B01229A715A718C
:100740001A7103B03CBC90469946A246AB46F0BD38
:100750002038FDE600140040004000410010004039
:10076000FFF8FFFF20608000000C0040FF03FFFF48
:10077000FFFF00FCFFFDFFFFFFFEFFFF0004004046
:1007800000180040FFF7FFFFFFDFFFFF0EBEFEE790
:100790000DBEFEE705BEFEE702BEFEE710B5164A37
:1007A000164B9A4215D0164A134B9A4211D01A0092
:1007B000124B9A420DD20333124A9B1A9B08013303
:1007C0009B0000220C480E498C58845004329A42F7
:1007D000FAD10D4A0D4B9A420AD009D2111D0333AA
:1007E0005B1A032083435B18002102C29A42FCD1AA
:1007F00000F00EF8FEE7C046000000205800002080
:10080000001D00000400002058000020A00300206C
:1008100070B5354B1B68013322D0344B344A13601A
:10082000043BFF2213421BD1324A1278D2070FD564
:10083000314A002111602C4A126882F30888FF2295
:1008400093432E4A93602A4B1B681B68184707E0A6
:10085000294A11682A4A91421CD1274B00221A606A
:10086000FFF73AFE62B600F0ABFE00F059F8040064
:10087000244A254B53602148036A1B021B0AC021EE
:1008800009060B43036200239360073313601F4E76
:10089000012511E0184A1A4911601D4A013A002A3F
:1008A000FCD1154A00211160C5E73378002B0BD12C
:1008B000164B1B78002B0DD02000A368984700280A
:1008C000F3D0124B1D70F0E7002000F01FFB00F08A
:1008D000A7FBFCE700F0E0FE0028EDD0012000F0CF
:1008E00015FB00F09DFBFCE7002000000420000049
:1008F0001002002000080040FC7F002000ED00E016
:100900003581730710E000E0E70300007700002066
:1009100048E8010010B5FFF7B7FB00F067FB10BD1A
:1009200010B5064C8223DB052360FFF767FC2168C6
:100930002000FFF755FC200010BDC0461402002027
:1009400070B5C0B005000C001600080001F057F8A3
:10095000400002306B46187003236A4653702378B8
:10096000002B17D07608012E16DD012269460231D0
:100970000134881C0B8001322378002B02D0010047
:10098000B242F5DB5200002369462800FFF79EFCC7
:1009900040B070BD0122F5E70122F3E7F0B583B066
:1009A000050004680823FF331022E254B84B1A787C
:1009B000B84802705A78B84E32709978B74A1180A8
:1009C0001188DF783F02394311801979B44A1180C8
:1009D00011885F793F02394311809979B14A1180BA
:1009E0001188DB791B020B43138082235B004022BA
:1009F000E254337802781B021343AB4A934200D18E
:100A00001EE125DC80225200934255D012DD812266
:100A10005200934200D172E100DA6CE1FF32FF3202
:100A2000934200D107E1A14A93420CD12000FFF785
:100A3000F3FC3CE0812B00D1BFE0822B00D1C4E06D
:100A4000802B00D1B1E001212000FFF7D5FC2EE082
:100A500090221201934200D196E012DD944A934213
:100A600000D1B7E125DD934A934200D1B6E1924A25
:100A70009342E8D1894B1B886B712000FFF7CCFCB7
:100A800015E0D022D20093421BD08822120193425B
:100A900000D183E0A022D2009342D4D12000FFF7FE
:100AA000BBFC7E4B198889B22868FFF7CDFC03B0E8
:100AB000F0BD824A9342C6D101212000FFF79CFC81
:100AC000F5E7764B1B881B0A012B18D0734B1B884C
:100AD0001B0A022B22D0714B1B881B0A032B4ED101
:100AE0006E4B1B88FF221340012B38D0002B24D0E3
:100AF000022B3CD001212000FFF77EFCD7E72868BD
:100B0000684B1B889BB21222122B02D8654B1A88A5
:100B100092B200236A49FFF7D9FBC8E72868614B06
:100B20001B889BB24322432B02D85E4B1A8892B299
:100B300000236449FFF7CAFBB9E7634B1B680193C5
:100B40002868584B1B889BB20422042B02D8554BB3
:100B50001A8892B2002301A9FFF7B8FBA7E7514B0F
:100B60001A88D2B228685949FFF7EAFE9FE74D4B31
:100B70001A88D2B228685649FFF7E2FE97E70121AA
:100B80002000FFF739FC92E7444B1B882B712000B3
:100B9000FFF742FC2000FFF75DFC88E7291D28686D
:100BA00000230122FFF792FB81E74A4900230B80D3
:100BB00028680222FFF78AFB79E7464900230B8069
:100BC00028680222FFF782FB71E7424B00221A805D
:100BD000334B1A8850210A403F490A701A880F2166
:100BE0000A401A801B889BB2032B1FD83A4B1B78F4
:100BF000002B10D02A4B1B8808335B01E418A37923
:100C00009B06DB0F334A13802868002302223149F8
:100C1000FFF75CFB4BE7224B1B8808335B01E418B2
:100C2000A379DB06DB0F2B4A1380EDE701212000BF
:100C3000FFF7E2FB3BE701212000FFF7DDFB36E792
:100C4000174B1A8880210A4023490A701A880F21FD
:100C50000A401A80114B1B889BB2002B46D1104BC7
:100C60001B889BB2002B41D00D4B1B889BB2032BE2
:100C70003CD8194B1B78002B30D0094B1B8808330C
:100C80005B01E31820225A712000FFF7C5FB0EE735
:100C900090000020790000207800002082000020D1
:100CA0007C0000207E000020020300000103000001
:100CB00021200000A121000021220000010B0000E2
:100CC000281A000004000020241A00003C1A00002A
:100CD000481A0000800000207A000020474B1B8843
:100CE00008335B01E31810225A71CDE7012120007F
:100CF000FFF782FBDBE62000FFF78EFBD7E63F4BDA
:100D00001A8880210A403E490A701A880F210A4039
:100D10001A803C4B1B889BB2002B56D1374B1B884B
:100D20009BB2002B51D0354B1B889BB2032B4CD868
:100D3000334B1B78002B25D0304B1B8808335B01CD
:100D4000E3189B799B0619D52C4A138808335B015D
:100D5000E31811311971138808335B01E318DB794B
:100D60005B060BD5138808335B01E3182031D9717A
:100D7000138808335B01E31802221A712000FFF781
:100D80004BFB94E61D4B1B8808335B01E3189B79F2
:100D9000DB06F3D5194A138808335B01E3181021E9
:100DA0001971138808335B01E318DB799B06E5D5DD
:100DB000138808335B01E3181031D97113880833A5
:100DC0005B01E31801221A71D8E701212000FFF727
:100DD00013FB6CE62000FFF71FFB68E628680A4B50
:100DE0001B889BB20822082B02D8074B1A8892B2A4
:100DF00000230649FFF76AFA59E6C0467C00002046
:100E00007A000020820000207E00002048000020A0
:100E100000B583B00190054B18680123012201A998
:100E2000FFF754FA012003B000BDC04614020020B1
:100E300010B582B06B46DC1D044B186801222100FE
:100E4000FFF796FA207802B010BDC04614020020C9
:100E500010B50748FFF77CF903000020002B06D0EF
:100E6000034B1A684823FF33D05CC007C00F10BD86
:100E70001402002070B505000C00044B1868012313
:100E80000A002900FFF722FA200070BD140200209A
:100E900070B504000D000848FFF75AF90023002838
:100EA00001D1180070BD044B18682A002100FFF71B
:100EB0005FFA0300F5E7C04614020020F8B505000C
:100EC0000E000B48FFF744F900280DD0002E0CD07F
:100ED0003400074F220029003868FFF749FA241A26
:100EE0002D18002CF6D100E000263000F8BDC046D9
:100EF0001402002010B50C00C368110020009847B0
:100F0000014B64221A8010BD8C000020012805D0FE
:100F1000002802D1054B064A1A607047034B054A68
:100F20001A60054B01221A70F7E7C04684020020C0
:100F3000E01A0000C41A000084000020F0B585B05B
:100F4000214B1B78002B37D0042908D002290FD061
:100F500004784E001CD004AB98190B3804E00468E8
:100F60004E0004AB98190B3800250F22302708E0FB
:100F70000488F5E737330370240901380135B54299
:100F800006D213002340092BF4D83B430370F3E748
:100F900001AB30221A7048325A704A1C52000A21A2
:100FA00099549E190331F1700232084908681900FA
:100FB000FFF7A0FF05B0F0BD044B1B680A0001005D
:100FC0001800FFF797FFF5E7850000208402002056
:100FD00072B6EFF30883044A1360036883F308884A
:100FE000436818477047C046880200200A4B1B8898
:100FF0009BB2002B04D0084A1388013B9BB213809C
:10100000064B1B889BB2002B04D0044A1388013B7B
:101010009BB213807047C0468C00002086000020E1
:10102000F0B5D6464F464646C0B58CB004A9CC4B69
:101030000A0031CB31C231CB31C211CB11C2C94808
:1010400083685B035B0F9B005A58C74B1A60836829
:101050009BB2C6490B605343C54A1360C54B00227F
:101060001A60C54B7A321A70BF4D6BE2C34B1B78C6
:10107000002B49D1C04B1B78532B4CD0522B00D1A5
:10108000B8E04F2B00D1C1E0482B00D1C4E0572B72
:1010900000D1C7E06F2B00D1CAE0682B00D1CDE0B2
:1010A000772B00D1D3E0472B00D1D9E0542B00D1CE
:1010B000EAE04E2B00D1F1E0562B00D1FDE0582B99
:1010C00000D187E1592B00D1A2E15A2B57D1AC4B6B
:1010D0001E68A84B1B68002E00D1E3E11F009E197B
:1010E000002301933878019900F0F8FA0190013754
:1010F000B742F7D1A34B18680122A349FFF7FAFEC4
:10110000019B07220F26D4E19E4B186802229F49BB
:10111000FFF7F0FEAEE79E4B1A689E4B1B689A42A3
:101120001ED99D480168013101600133994803606F
:10113000D31A934A126893424CD2984A13608D4B4B
:101140001868964E326800F049FC336891490A6885
:10115000D2180A6090490A68D2180A60904A13703F
:101160008C4A1368013B13608B4A1368013B136080
:101170008B4B1B78824A11688B422ED3C0467E4B24
:101180007A221A707E4B00221A607C4B1B78002B4F
:1011900000D0A3E17F4A1368013313607E490A68D7
:1011A00001320A607A4A1268934200D3CAE1236886
:1011B0001B78FF2BEED0232B00D157E71A00303AD3
:1011C000092A00D991E16E490A681201303B1343A4
:1011D0000B60DFE7714B1A60B1E7C91A654B1868FD
:1011E000684B1B689B6998470028C7D06D4B6422E9
:1011F0001A80C3E7624B19685E4B1868614B1B6825
:101200005B699847684B64221A80B8E7594B1B68A2
:101210005B4A12681A70B2E7564B1B68584A12684C
:101220001A80ACE7534B1B68554A12681A60A6E750
:10123000504B18680121FFF781FEA0E750484D4B45
:101240001B681B8803600221FFF778FE97E7494B74
:101250001B681B684A4803600421FFF76FFE8EE796
:10126000474B1868FFF7B4FE504B1B6883F30888A0
:1012700062B64F4B1B78002B00D180E7414B1B68B7
:101280001B68062098477AE73C4B01221A703D4BB9
:10129000186801323D49FFF72DFE70E7374B1B7888
:1012A000002B03D0354B00221A7068E7354B1868C5
:1012B00002223649FFF71EFEF4E7324E01223D4975
:1012C0003068FFF717FE03223B493068FFF712FE34
:1012D0003A4F012239003068FFF70CFE0D223849E1
:1012E0003068FFF707FE306801223900FFF702FE81
:1012F000284B00221A60284B324A1A6025481900F0
:1013000003685A1C02600B685E1C0E601B78002B81
:10131000F6D11C4E2C493068FFF7ECFD30680122F5
:101320002649FFF7E7FD1B4B00221A601A4B274A9C
:101330001A601848190003685A1C02600B685E1C8A
:101340000E601B78002BF6D10E4E21493068FFF756
:10135000D1FD306802220D49FFF7CCFD0FE7C046F2
:10136000581A0000004000413C02002034020020D6
:1013700030020020800200202C0200208500002086
:101380008C02002084020020B81A00008C1A000091
:1013900024020020380200202802002090020020B1
:1013A00020020020860000208C00002088020020FF
:1013B00084000020901A0000881A0000941A00008F
:1013C000781A0000991A0000981A0000A51A000067
:1013D000A41A0000664B1968664B1B68994210D22C
:1013E000654A664B1F1C664E62484B08D3611780E6
:1013F000137DDB07FCD533689B00C918036899424D
:10140000F3D3604B186803225F49FFF773FDB6E61C
:10141000574B1E68002E0AD15C4B1A685C4B1A6051
:10142000584B186803225B49FFF764FDA7E6B6082E
:10143000574B1B689C46554B1F684F4A5368802189
:101440008B435360002EEBD01000534B9A464C4B0D
:101450009946524B98460AE0002342460280027D9C
:10146000D207FCD59A00BF189444F61AD8D0534638
:101470000380037DDB07FCD54B461B68032BEBD9B0
:10148000002E0DD000210023624652587A500133BD
:101490002A6892089342E0D20431B342F4D1DCE7E7
:1014A0003300DAE70023019324E602A95054013AFD
:1014B00009D3310019401B09080030300929F4DD37
:1014C00037310800F1E72F4E08223068FFF712FD90
:1014D000306803223249FFF70DFD50E6294B1868AA
:1014E00001323049FFF706FD54E61A00413A052A59
:1014F00006D81F490A681201373B13430B6049E6BF
:101500001A00613A052A06D819490A681201573BA0
:1015100013430B603EE62C2B05D0234A1370144B6B
:1015200000221A6036E6124B184A19681160002230
:101530001A602FE600231D4A13601D4A1D491160E1
:101540001D4A13600F4B1B681B69402119489847BF
:101550000028EFD0194B64221A80144B1860144BEA
:10156000144A1A60144B00221A60114C1FE6C04640
:101570008C020020300200200040004102A5FFFF45
:101580003C02002084020020B01A000080020020EB
:1015900088000020B41A000044A5FFFF04A5FFFF47
:1015A000BC1A0000C01A00002C02002024020020F7
:1015B000280200204002002038020020860000207F
:1015C00010B51F4B44215A5C012422435A54322245
:1015D000985C353988439854985C032108439854A3
:1015E0004520195C21431954995C363801409954BF
:1015F000995C302001439954124AD36901210B436D
:10160000D361114AC8233F31D150100088314022A4
:1016100043581A42FCD08022842052030B49C00553
:10162000FEF764FD00230A4A13700A4A13700A4A3F
:1016300013700A4A13700A4A13700A4A137010BDD5
:101640000028004000040040001800402AF6000076
:10165000940200201E030020950200209802002022
:101660001F0300201C03002010B5C1B28420C00558
:10167000FEF754FD012010BD8423DB05187E4007D2
:10168000C00F704710B5FFF7F7FF0028FBD084208C
:10169000C005FEF749FD10BD10B5FFF7EDFF0023B3
:1016A000002801D1180010BDFFF7ECFF233843429A
:1016B0004341F7E770B504000E1E06D045182078A8
:1016C000FFF7D2FF0134A542F9D1300070BD10B54B
:1016D0000400FFF7D7FF2070012010BD0B0A434024
:1016E0005B000902024A985A484080B27047C046DF
:1016F000FC1A0000F0B5DE4657464E464546E0B5BA
:1017000083B001908B464C4B00221A70002918D1EF
:101710004A4B01321A70484C0025FFF7B3FF23787B
:10172000002B1CD1C0B2432803D071287CD01528CF
:10173000F3D101239946424B98461C003F4B9A46F1
:1017400062E03F4B19803D4B00221A700B005B0694
:10175000E1D00B0080337F3293439B46DBE7364B6F
:101760001D70FFF78FFFC0B2334B1B78002BDAD010
:10177000314B00221A70002057E02F4B00221A70C4
:10178000002052E00420FFF76FFFFFF77BFF2B4B99
:1017900000221A70012048E03D78013B2380013788
:1017A0002800FFF761FF00992800FFF797FF0090DE
:1017B000013E002E08D043461B88002BECD1524638
:1017C0001578002DECD0E7E70500000AC0B2FFF75E
:1017D0004BFFE8B2FFF748FFFFF754FF164B1B78AB
:1017E000002BCAD1FF23184006280AD14B460133EB
:1017F000DBB2994680235B429C46E344019B8033E5
:1018000001935B46002BBDD00120FFF72DFF48461A
:10181000FFF72AFF4B46D843C0B2FFF725FF019FD1
:10182000802600230093C6E7002003B03CBC90460E
:101830009946A246AB46F0BD1C0300201D030020C4
:1018400096020020F0B5D646474680B583B0060024
:101850000F1E2BD0002400230193194B9A46194BDD
:10186000984608E0731C35701E00802F18D0013494
:10187000A4B2A7421ED0FFF705FFC5B253461B789E
:10188000002B15D101992800FFF728FF019043464E
:101890001B88002BE6D10C4B1B78002BE7D0E1E72F
:1018A000084A1288013A07490A80E0E7019101E0FD
:1018B00001230193019803B00CBC90469A46F0BDF9
:1018C0001C030020960200201D030020F0B585B007
:1018D00005003E4B00221A70002904D13C4B013216
:1018E0001A7064260AE03B4B1980394B00221A70AB
:1018F000F7E7002C0ED1013E002E65D04320FFF704
:10190000B3FE354CFFF7B8FE0028F2D1002CF2D020
:10191000013CF7E701242D4E41E02C4B00221A70C8
:1019200000204BE0022103A8FFF78CFF8021280054
:10193000FFF788FF0190254B1B78002B08D0234B25
:101940001B78002B36D0214B00221A70002035E086
:10195000FFF798FE0700FFF795FE1C4B1A78012A47
:10196000EDD03F02381880B2019B834203D103AB14
:101970001B78A34203D01820FFF776FEDFE7E3438E
:1019800003AA5278DBB29A42F5D10620FFF76CFE2B
:101990000E4B1B78002BD6D10134E4B28035FFF713
:1019A00071FE3378002BB8D1FF2318400128B9D03D
:1019B000042805D0064B00221A70012005B0F0BDA6
:1019C0000620FFF751FEF5E70020F7E71C03002093
:1019D0001D0300209602002000350C00002310B5E6
:1019E0009A4200D110BDCC5CC4540133F8E7030027
:1019F0001218934200D1704719700133F9E70023A0
:101A0000C25C0133002AFBD1581E7047F8B5C046AE
:101A1000F8BC08BC9E467047F8B5C046F8BC08BC88
:101A20009E467047040309041201000202000040B0
:101A300041234D0200020102000100004172647561
:101A4000696E6F204C4C430052696F7420523334DE
:101A5000207374616D700000080000001000000029
:101A60002000000040000000800000000001000095
:101A700000020000000400005B41726475696E6F33
:101A80003A58595A5D000000322E30000A0D00000D
:101A900076000000200000004E6F762032302032A9
:101AA0003031390031323A31333A31300000000000
:101AB000580A0D00590A0D005A000000230A0D00B3
:101AC0003E0000006916000085160000791600002F
:101AD000B5160000CF160000F5160000CD18000066
:101AE000110E0000310E0000510E0000750E0000B6
:101AF000910E0000750E0000BD0E000000002110C8
:101B0000422063308440A550C660E7700881299167
:101B10004AA16BB18CC1ADD1CEE1EFF1311210020F
:101B200073325222B5529442F772D66239931883B7
:101B30007BB35AA3BDD39CC3FFF3DEE362244334DB
:101B400020040114E664C774A44485546AA54BB507
:101B500028850995EEE5CFF5ACC58DD553367226AF
:101B600011163006D776F6669556B4465BB77AA757
:101B700019973887DFF7FEE79DD7BCC7C448E558FB
:101B80008668A7784008611802282338CCC9EDD9A7
:101B90008EE9AFF9488969990AA92BB9F55AD44A4F
:101BA000B77A966A711A500A333A122AFDDBDCCBF7
:101BB000BFFB9EEB799B588B3BBB1AABA66C877C1B
:101BC000E44CC55C222C033C600C411CAEED8FFD47
:101BD000ECCDCDDD2AAD0BBD688D499D977EB66EEF
:101BE000D55EF44E133E322E511E700E9FFFBEEF97
:101BF000DDDFFCCF1BBF3AAF599F788F8891A98159
:101C0000CAB1EBA10CD12DC14EF16FE18010A10042
:101C1000C230E3200450254046706760B983989332
:101C2000FBA3DAB33DC31CD37FE35EF3B102901292
:101C3000F322D2323542145277625672EAB5CBA5FE
:101C4000A89589856EF54FE52CD50DC5E234C324E2
:101C5000A01481046674476424540544DBA7FAB7D2
:101C60009987B8975FE77EF71DC73CD7D326F23632
:101C70009106B01657667676154634564CD96DC91E
:101C80000EF92FE9C899E9898AB9ABA94458654882
:101C900006782768C018E1088238A3287DCB5CDB72
:101CA0003FEB1EFBF98BD89BBBAB9ABB754A545AD2
:101CB000376A167AF10AD01AB32A923A2EFD0FED3E
:101CC0006CDD4DCDAABD8BADE89DC98D267C076C22
:101CD000645C454CA23C832CE01CC10C1FEF3EFF12
:101CE0005DCF7CDF9BAFBABFD98FF89F176E367E72
:101CF000554E745E932EB23ED10EF01E00000000D1
:101D000008140000090243000201008032090400A7
:101D10000001020200000524001001042402000555
:101D2000240600010524010001070583030800FFC4
:101D300009040100020A00000007058102400000BA
:101D4000070502024000000000C201000000080078
:081D50006900000041000000E1
:040000030000079D55
:00000001FF
